{
  "contractName": "StateChannel",
  "abi": [
    {
      "constant": true,
      "inputs": [
        {
          "name": "",
          "type": "address"
        },
        {
          "name": "",
          "type": "uint256"
        }
      ],
      "name": "state",
      "outputs": [
        {
          "name": "stage",
          "type": "uint8"
        },
        {
          "name": "cap",
          "type": "uint256"
        },
        {
          "name": "closed_at",
          "type": "uint256"
        },
        {
          "name": "funds_used",
          "type": "uint256"
        }
      ],
      "payable": false,
      "stateMutability": "view",
      "type": "function"
    },
    {
      "constant": true,
      "inputs": [],
      "name": "PUNISHMENT",
      "outputs": [
        {
          "name": "",
          "type": "uint256"
        }
      ],
      "payable": false,
      "stateMutability": "view",
      "type": "function"
    },
    {
      "constant": true,
      "inputs": [],
      "name": "accepting_new_channels",
      "outputs": [
        {
          "name": "",
          "type": "bool"
        }
      ],
      "payable": false,
      "stateMutability": "view",
      "type": "function"
    },
    {
      "constant": true,
      "inputs": [],
      "name": "WAITING_PERIOD",
      "outputs": [
        {
          "name": "",
          "type": "uint256"
        }
      ],
      "payable": false,
      "stateMutability": "view",
      "type": "function"
    },
    {
      "constant": false,
      "inputs": [],
      "name": "renounceOwnership",
      "outputs": [],
      "payable": false,
      "stateMutability": "nonpayable",
      "type": "function"
    },
    {
      "constant": true,
      "inputs": [
        {
          "name": "",
          "type": "address"
        }
      ],
      "name": "available_channel",
      "outputs": [
        {
          "name": "",
          "type": "uint256"
        }
      ],
      "payable": false,
      "stateMutability": "view",
      "type": "function"
    },
    {
      "constant": true,
      "inputs": [],
      "name": "owner",
      "outputs": [
        {
          "name": "",
          "type": "address"
        }
      ],
      "payable": false,
      "stateMutability": "view",
      "type": "function"
    },
    {
      "constant": true,
      "inputs": [],
      "name": "CHANNEL_ID",
      "outputs": [
        {
          "name": "",
          "type": "uint256"
        }
      ],
      "payable": false,
      "stateMutability": "view",
      "type": "function"
    },
    {
      "constant": false,
      "inputs": [
        {
          "name": "newOwner",
          "type": "address"
        }
      ],
      "name": "transferOwnership",
      "outputs": [],
      "payable": false,
      "stateMutability": "nonpayable",
      "type": "function"
    },
    {
      "inputs": [
        {
          "name": "_accepting_new_channels",
          "type": "bool"
        }
      ],
      "payable": true,
      "stateMutability": "payable",
      "type": "constructor"
    },
    {
      "anonymous": false,
      "inputs": [
        {
          "indexed": false,
          "name": "user",
          "type": "address"
        },
        {
          "indexed": false,
          "name": "channel_number",
          "type": "uint256"
        },
        {
          "indexed": false,
          "name": "cap",
          "type": "uint256"
        }
      ],
      "name": "CreatedChannel",
      "type": "event"
    },
    {
      "anonymous": false,
      "inputs": [
        {
          "indexed": true,
          "name": "previousOwner",
          "type": "address"
        }
      ],
      "name": "OwnershipRenounced",
      "type": "event"
    },
    {
      "anonymous": false,
      "inputs": [
        {
          "indexed": true,
          "name": "previousOwner",
          "type": "address"
        },
        {
          "indexed": true,
          "name": "newOwner",
          "type": "address"
        }
      ],
      "name": "OwnershipTransferred",
      "type": "event"
    },
    {
      "constant": false,
      "inputs": [
        {
          "name": "_accepting_new_channels",
          "type": "bool"
        }
      ],
      "name": "changeAcceptanceStatus",
      "outputs": [],
      "payable": false,
      "stateMutability": "nonpayable",
      "type": "function"
    },
    {
      "constant": false,
      "inputs": [
        {
          "name": "cap",
          "type": "uint256"
        }
      ],
      "name": "createNewChannel",
      "outputs": [
        {
          "name": "",
          "type": "uint256"
        }
      ],
      "payable": true,
      "stateMutability": "payable",
      "type": "function"
    },
    {
      "constant": false,
      "inputs": [
        {
          "name": "channel_number",
          "type": "uint256"
        },
        {
          "name": "funds_used",
          "type": "uint256"
        }
      ],
      "name": "startClosingByUser",
      "outputs": [],
      "payable": false,
      "stateMutability": "nonpayable",
      "type": "function"
    },
    {
      "constant": false,
      "inputs": [
        {
          "name": "user",
          "type": "address"
        },
        {
          "name": "channel_number",
          "type": "uint256"
        },
        {
          "name": "funds_used",
          "type": "uint256"
        },
        {
          "name": "v",
          "type": "uint8"
        },
        {
          "name": "r",
          "type": "bytes32"
        },
        {
          "name": "s",
          "type": "bytes32"
        }
      ],
      "name": "closeByOwner",
      "outputs": [],
      "payable": false,
      "stateMutability": "nonpayable",
      "type": "function"
    },
    {
      "constant": false,
      "inputs": [
        {
          "name": "user",
          "type": "address"
        },
        {
          "name": "channel_number",
          "type": "uint256"
        },
        {
          "name": "funds_used",
          "type": "uint256"
        },
        {
          "name": "v",
          "type": "uint8"
        },
        {
          "name": "r",
          "type": "bytes32"
        },
        {
          "name": "s",
          "type": "bytes32"
        }
      ],
      "name": "challengeByOwner",
      "outputs": [],
      "payable": false,
      "stateMutability": "nonpayable",
      "type": "function"
    },
    {
      "constant": false,
      "inputs": [
        {
          "name": "channel_number",
          "type": "uint256"
        }
      ],
      "name": "closeByUser",
      "outputs": [],
      "payable": false,
      "stateMutability": "nonpayable",
      "type": "function"
    },
    {
      "constant": true,
      "inputs": [
        {
          "name": "funds_used",
          "type": "uint256"
        },
        {
          "name": "user",
          "type": "address"
        },
        {
          "name": "channel_number",
          "type": "uint256"
        },
        {
          "name": "v",
          "type": "uint8"
        },
        {
          "name": "r",
          "type": "bytes32"
        },
        {
          "name": "s",
          "type": "bytes32"
        }
      ],
      "name": "verifyReceipt",
      "outputs": [
        {
          "name": "",
          "type": "bool"
        }
      ],
      "payable": false,
      "stateMutability": "view",
      "type": "function"
    },
    {
      "constant": true,
      "inputs": [
        {
          "name": "CHANNEL_ID",
          "type": "uint256"
        },
        {
          "name": "funds_used",
          "type": "uint256"
        },
        {
          "name": "user",
          "type": "uint256"
        },
        {
          "name": "channel_number",
          "type": "uint256"
        }
      ],
      "name": "hash",
      "outputs": [
        {
          "name": "",
          "type": "bytes32"
        }
      ],
      "payable": false,
      "stateMutability": "pure",
      "type": "function"
    },
    {
      "constant": true,
      "inputs": [
        {
          "name": "message",
          "type": "bytes32"
        },
        {
          "name": "v",
          "type": "uint8"
        },
        {
          "name": "r",
          "type": "bytes32"
        },
        {
          "name": "s",
          "type": "bytes32"
        }
      ],
      "name": "verify",
      "outputs": [
        {
          "name": "",
          "type": "address"
        }
      ],
      "payable": false,
      "stateMutability": "pure",
      "type": "function"
    }
  ],
  "bytecode": "0x60806040526001600060146101000a81548160ff02191690831515021790555060405160208061168b83398101806040528101908080519060200190929190505050336000806101000a81548173ffffffffffffffffffffffffffffffffffffffff021916908373ffffffffffffffffffffffffffffffffffffffff1602179055506100998161009f640100000000026401000000009004565b50610117565b6000809054906101000a900473ffffffffffffffffffffffffffffffffffffffff1673ffffffffffffffffffffffffffffffffffffffff163373ffffffffffffffffffffffffffffffffffffffff161415156100fa57600080fd5b80600060146101000a81548160ff02191690831515021790555050565b611565806101266000396000f3006080604052600436106100fc576000357c0100000000000000000000000000000000000000000000000000000000900463ffffffff16806304853ef7146101015780631ef1413b146101855780631fdcfe35146101b45780633ae7f938146101df5780634cc4f4191461024657806360326e89146102755780636f85c7e4146102f5578063715018a61461032057806375367e0b1461033757806379e60a4e1461036e5780637da90c65146103ee5780638da5cb5b1461044557806392dc3a0b1461049c578063b0c0c514146104d0578063e094dc1d146104fb578063ee386c8314610593578063f1835db7146105c0578063f2fde38b1461065a575b600080fd5b34801561010d57600080fd5b5061014c600480360381019080803573ffffffffffffffffffffffffffffffffffffffff1690602001909291908035906020019092919050505061069d565b6040518085600281111561015c57fe5b60ff16815260200184815260200183815260200182815260200194505050505060405180910390f35b34801561019157600080fd5b506101b26004803603810190808035151590602001909291905050506106e7565b005b3480156101c057600080fd5b506101c961075f565b6040518082815260200191505060405180910390f35b3480156101eb57600080fd5b506102286004803603810190808035906020019092919080359060200190929190803590602001909291908035906020019092919050505061076b565b60405180826000191660001916815260200191505060405180910390f35b34801561025257600080fd5b5061025b6107a5565b604051808215151515815260200191505060405180910390f35b34801561028157600080fd5b506102f3600480360381019080803573ffffffffffffffffffffffffffffffffffffffff1690602001909291908035906020019092919080359060200190929190803560ff169060200190929190803560001916906020019092919080356000191690602001909291905050506107b8565b005b34801561030157600080fd5b5061030a610993565b6040518082815260200191505060405180910390f35b34801561032c57600080fd5b50610335610998565b005b34801561034357600080fd5b5061036c6004803603810190808035906020019092919080359060200190929190505050610a9a565b005b34801561037a57600080fd5b506103ec600480360381019080803573ffffffffffffffffffffffffffffffffffffffff1690602001909291908035906020019092919080359060200190929190803560ff16906020019092919080356000191690602001909291908035600019169060200190929190505050610b74565b005b3480156103fa57600080fd5b5061042f600480360381019080803573ffffffffffffffffffffffffffffffffffffffff169060200190929190505050610d85565b6040518082815260200191505060405180910390f35b34801561045157600080fd5b5061045a610d9d565b604051808273ffffffffffffffffffffffffffffffffffffffff1673ffffffffffffffffffffffffffffffffffffffff16815260200191505060405180910390f35b6104ba60048036038101908080359060200190929190505050610dc2565b6040518082815260200191505060405180910390f35b3480156104dc57600080fd5b506104e5610fe7565b6040518082815260200191505060405180910390f35b34801561050757600080fd5b5061057960048036038101908080359060200190929190803573ffffffffffffffffffffffffffffffffffffffff16906020019092919080359060200190929190803560ff16906020019092919080356000191690602001909291908035600019169060200190929190505050610fec565b604051808215151515815260200191505060405180910390f35b34801561059f57600080fd5b506105be600480360381019080803590602001909291905050506110b8565b005b3480156105cc57600080fd5b506106186004803603810190808035600019169060200190929190803560ff1690602001909291908035600019169060200190929190803560001916906020019092919050505061126a565b604051808273ffffffffffffffffffffffffffffffffffffffff1673ffffffffffffffffffffffffffffffffffffffff16815260200191505060405180910390f35b34801561066657600080fd5b5061069b600480360381019080803573ffffffffffffffffffffffffffffffffffffffff1690602001909291905050506113af565b005b6002602052816000526040600020602052806000526040600020600091509150508060000160009054906101000a900460ff16908060010154908060020154908060030154905084565b6000809054906101000a900473ffffffffffffffffffffffffffffffffffffffff1673ffffffffffffffffffffffffffffffffffffffff163373ffffffffffffffffffffffffffffffffffffffff1614151561074257600080fd5b80600060146101000a81548160ff02191690831515021790555050565b670de0b6b3a764000081565b6000848484846040518085815260200184815260200183815260200182815260200194505050505060405180910390209050949350505050565b600060149054906101000a900460ff1681565b600080600260008973ffffffffffffffffffffffffffffffffffffffff1673ffffffffffffffffffffffffffffffffffffffff168152602001908152602001600020600088815260200190815260200160002091506001600281111561081a57fe5b8260000160009054906101000a900460ff16600281111561083757fe5b14151561084357600080fd5b85826003015410151561085557600080fd5b8582600101541015151561086857600080fd5b610876868989888888610fec565b151561088157600080fd5b60028260000160006101000a81548160ff021916908360028111156108a257fe5b02179055506108be86836001015461150490919063ffffffff16565b90506000809054906101000a900473ffffffffffffffffffffffffffffffffffffffff1673ffffffffffffffffffffffffffffffffffffffff166108fc610916670de0b6b3a76400008961151d90919063ffffffff16565b9081150290604051600060405180830381858888f19350505050158015610941573d6000803e3d6000fd5b508773ffffffffffffffffffffffffffffffffffffffff166108fc829081150290604051600060405180830381858888f19350505050158015610988573d6000803e3d6000fd5b505050505050505050565b600a81565b6000809054906101000a900473ffffffffffffffffffffffffffffffffffffffff1673ffffffffffffffffffffffffffffffffffffffff163373ffffffffffffffffffffffffffffffffffffffff161415156109f357600080fd5b6000809054906101000a900473ffffffffffffffffffffffffffffffffffffffff1673ffffffffffffffffffffffffffffffffffffffff167ff8df31144d9c2f0f6b59d69b8b98abd5459d07f2742c4df920b25aae33c6482060405160405180910390a260008060006101000a81548173ffffffffffffffffffffffffffffffffffffffff021916908373ffffffffffffffffffffffffffffffffffffffff160217905550565b6000600260003373ffffffffffffffffffffffffffffffffffffffff1673ffffffffffffffffffffffffffffffffffffffff1681526020019081526020016000206000848152602001908152602001600020905060006002811115610afb57fe5b8160000160009054906101000a900460ff166002811115610b1857fe5b141515610b2457600080fd5b818160030181905550610b41600a4361151d90919063ffffffff16565b816002018190555060018160000160006101000a81548160ff02191690836002811115610b6a57fe5b0217905550505050565b6000806000809054906101000a900473ffffffffffffffffffffffffffffffffffffffff1673ffffffffffffffffffffffffffffffffffffffff163373ffffffffffffffffffffffffffffffffffffffff16141515610bd257600080fd5b600260008973ffffffffffffffffffffffffffffffffffffffff1673ffffffffffffffffffffffffffffffffffffffff1681526020019081526020016000206000888152602001908152602001600020915060006002811115610c3157fe5b8260000160009054906101000a900460ff166002811115610c4e57fe5b141515610c5a57600080fd5b610c68868989888888610fec565b1515610c7357600080fd5b60028260000160006101000a81548160ff02191690836002811115610c9457fe5b0217905550610cb086836001015461150490919063ffffffff16565b90506000809054906101000a900473ffffffffffffffffffffffffffffffffffffffff1673ffffffffffffffffffffffffffffffffffffffff166108fc879081150290604051600060405180830381858888f19350505050158015610d19573d6000803e3d6000fd5b508773ffffffffffffffffffffffffffffffffffffffff166108fc610d4f670de0b6b3a76400008461151d90919063ffffffff16565b9081150290604051600060405180830381858888f19350505050158015610d7a573d6000803e3d6000fd5b505050505050505050565b60016020528060005260406000206000915090505481565b6000809054906101000a900473ffffffffffffffffffffffffffffffffffffffff1681565b600080610de0670de0b6b3a76400008461151d90919063ffffffff16565b34141515610ded57600080fd5b600060149054906101000a900460ff161515610e0857600080fd5b600160003373ffffffffffffffffffffffffffffffffffffffff1673ffffffffffffffffffffffffffffffffffffffff168152602001908152602001600020549050610e5e60018261151d90919063ffffffff16565b600160003373ffffffffffffffffffffffffffffffffffffffff1673ffffffffffffffffffffffffffffffffffffffff1681526020019081526020016000208190555060806040519081016040528060006002811115610eba57fe5b8152602001848152602001600081526020016000815250600260003373ffffffffffffffffffffffffffffffffffffffff1673ffffffffffffffffffffffffffffffffffffffff168152602001908152602001600020600083815260200190815260200160002060008201518160000160006101000a81548160ff02191690836002811115610f4557fe5b02179055506020820151816001015560408201518160020155606082015181600301559050507ffdf1192447a4831c5027fba42fc1b98496c1f8cb396c6a16f79521112850a099338285604051808473ffffffffffffffffffffffffffffffffffffffff1673ffffffffffffffffffffffffffffffffffffffff168152602001838152602001828152602001935050505060405180910390a180915050919050565b608181565b600086600260008873ffffffffffffffffffffffffffffffffffffffff1673ffffffffffffffffffffffffffffffffffffffff1681526020019081526020016000206000878152602001908152602001600020600101541015151561105057600080fd5b8573ffffffffffffffffffffffffffffffffffffffff1661109561108d60818a8a73ffffffffffffffffffffffffffffffffffffffff168a61076b565b86868661126a565b73ffffffffffffffffffffffffffffffffffffffff161490509695505050505050565b600080600260003373ffffffffffffffffffffffffffffffffffffffff1673ffffffffffffffffffffffffffffffffffffffff168152602001908152602001600020600084815260200190815260200160002091506001600281111561111a57fe5b8260000160009054906101000a900460ff16600281111561113757fe5b14151561114357600080fd5b43826002015410151561115557600080fd5b60028260000160006101000a81548160ff0219169083600281111561117657fe5b02179055506111968260030154836001015461150490919063ffffffff16565b90506000809054906101000a900473ffffffffffffffffffffffffffffffffffffffff1673ffffffffffffffffffffffffffffffffffffffff166108fc83600301549081150290604051600060405180830381858888f19350505050158015611203573d6000803e3d6000fd5b503373ffffffffffffffffffffffffffffffffffffffff166108fc611239670de0b6b3a76400008461151d90919063ffffffff16565b9081150290604051600060405180830381858888f19350505050158015611264573d6000803e3d6000fd5b50505050565b600060606000806040805190810160405280601c81526020017f19457468657265756d205369676e6564204d6573736167653a0a333200000000815250925082886040518083805190602001908083835b6020831015156112e057805182526020820191506020810190506020830392506112bb565b6001836020036101000a03801982511681845116808217855250505050505090500182600019166000191681526020019250505060405180910390209150600182888888604051600081526020016040526040518085600019166000191681526020018460ff1660ff1681526020018360001916600019168152602001826000191660001916815260200194505050505060206040516020810390808403906000865af1158015611395573d6000803e3d6000fd5b505050602060405103519050809350505050949350505050565b6000809054906101000a900473ffffffffffffffffffffffffffffffffffffffff1673ffffffffffffffffffffffffffffffffffffffff163373ffffffffffffffffffffffffffffffffffffffff1614151561140a57600080fd5b600073ffffffffffffffffffffffffffffffffffffffff168173ffffffffffffffffffffffffffffffffffffffff161415151561144657600080fd5b8073ffffffffffffffffffffffffffffffffffffffff166000809054906101000a900473ffffffffffffffffffffffffffffffffffffffff1673ffffffffffffffffffffffffffffffffffffffff167f8be0079c531659141344cd1fd0a4f28419497f9722a3daafe3b4186f6b6457e060405160405180910390a3806000806101000a81548173ffffffffffffffffffffffffffffffffffffffff021916908373ffffffffffffffffffffffffffffffffffffffff16021790555050565b600082821115151561151257fe5b818303905092915050565b6000818301905082811015151561153057fe5b809050929150505600a165627a7a723058208566f4dfca9ad85c748080469b45152ef00e5529d5df5ca7c57053317975945b0029",
  "source": "pragma solidity ^0.4.23;\n\n// import 'https://github.com/OpenZeppelin/openzeppelin-solidity/contracts/ownership/Ownable.sol';\n// import 'https://github.com/OpenZeppelin/openzeppelin-solidity/contracts/math/SafeMath.sol';\n\nimport './Ownable.sol';\nimport './SafeMath.sol';\n\n\ncontract StateChannel is Ownable {\n\n    using SafeMath for uint256; // TODO\n\n    uint256 public constant CHANNEL_ID = 129; // unique contract ID - salt\n    uint256 public constant PUNISHMENT = 1 ether;  // TODO should be ~10% of value - solidity doesnt have floats, so better to do it that way\n    uint256 public constant WAITING_PERIOD = 10; // 4 * 2880;  // after \"close\" call, we're waiting ~48h for challenge (new block appears - on average - every 15 seconds)\n    bool public accepting_new_channels = true;\n\n    enum Stage {\n        Open,\n        WaitingForChallengeByOwner,\n        Closed\n    }\n\n    struct StateS {\n        Stage stage;\n        uint256 cap;\n        uint256 closed_at;\n        uint256 funds_used;\n    }\n\n    mapping (address => uint256) public available_channel; // since one user can have multiple channels, this mapping holds the minimal available number\n    mapping (address => mapping (uint256 => StateS)) public state;  // the client is responsible for remembering the number - he get's it after initialization\n\n    event CreatedChannel(address user, uint256 channel_number, uint256 cap);\n\n    constructor(bool _accepting_new_channels) public payable {\n        changeAcceptanceStatus(_accepting_new_channels);\n    }\n\n    function changeAcceptanceStatus(bool _accepting_new_channels) public onlyOwner {\n        accepting_new_channels = _accepting_new_channels;\n    }\n\n    function createNewChannel(uint256 cap) public payable returns(uint256) {\n        require (msg.value == (cap.add(PUNISHMENT)));\n        require (accepting_new_channels);\n\n        uint256 channel_number = available_channel[msg.sender];\n        available_channel[msg.sender] = channel_number.add(1);\n        state[msg.sender][channel_number] = StateS({\n            stage: Stage.Open, \n            cap: cap,\n            closed_at: 0,\n            funds_used: 0\n        });\n\n        emit CreatedChannel(msg.sender, channel_number, cap);\n        return channel_number;\n    }\n\n    function startClosingByUser (uint256 channel_number, uint256 funds_used) public {\n        StateS storage st = state[msg.sender][channel_number];\n\n        require (st.stage == Stage.Open);\n\n        st.funds_used = funds_used;\n        st.closed_at = block.number.add(WAITING_PERIOD);\n        st.stage = Stage.WaitingForChallengeByOwner;\n    }\n\n    function closeByOwner (\n        address user, \n        uint256 channel_number, \n        uint256 funds_used, \n        uint8 v, \n        bytes32 r, \n        bytes32 s) public onlyOwner {\n        StateS storage st = state[user][channel_number];\n\n        require (st.stage == Stage.Open);\n        require (verifyReceipt(funds_used, user, channel_number, v, r, s));\n        \n        st.stage = Stage.Closed;\n\n        uint256 funds_left = st.cap.sub(funds_used);\n        \n        owner.transfer(funds_used);\n        user.transfer(funds_left.add(PUNISHMENT));  // return PUNISHMENT to user, since he didn't cheat\n    }\n    \n    function challengeByOwner (address user, \n        uint256 channel_number, \n        uint256 funds_used, \n        uint8 v, \n        bytes32 r, \n        bytes32 s) public {\n        StateS storage st = state[user][channel_number];\n\n        require (st.stage == Stage.WaitingForChallengeByOwner);\n        require (st.funds_used < funds_used);  // we can only challenge if we propose higher funds_used\n        require (st.cap >= funds_used); // and we can only propose lower funds than cap\n        require (verifyReceipt(funds_used, user, channel_number, v, r, s));\n\n        st.stage = Stage.Closed;\n        \n        // It appears the owner is right - user should then pay PUNISHMENT and return funds to user\n        uint256 funds_left = st.cap.sub(funds_used);\n        \n        owner.transfer(funds_used.add(PUNISHMENT));\n        user.transfer(funds_left);\n    }\n\n    function closeByUser (uint256 channel_number) public {\n        StateS storage st = state[msg.sender][channel_number];\n\n        require (st.stage == Stage.WaitingForChallengeByOwner);\n        require (st.closed_at < block.number);\n        \n        st.stage = Stage.Closed;\n\n        // It appears the user didn't cheat\n        uint256 funds_left = st.cap.sub(st.funds_used);\n        \n        owner.transfer(st.funds_used);\n        msg.sender.transfer(funds_left.add(PUNISHMENT));\n    }\n    \n    function verifyReceipt (\n        uint256 funds_used, \n        address user, \n        uint256 channel_number, \n        uint8 v, \n        bytes32 r, \n        bytes32 s) public view returns(bool) {\n\n        require (state[user][channel_number].cap >= funds_used);\n\n        // converting everything to uint256 because otherwise nothing works\n        return verify(hash(uint256(CHANNEL_ID), uint256(funds_used), uint256(user), uint256(channel_number)), v, r, s) == user;\n    }\n\n    function hash(uint256 CHANNEL_ID, uint256 funds_used, uint256 user, uint256 channel_number) public pure returns(bytes32) {\n        return sha3(CHANNEL_ID, funds_used, user, channel_number);\n    }\n\n    function verify(bytes32 message, uint8 v, bytes32 r, bytes32 s) public pure returns(address) {\n        bytes memory prefix = \"\\x19Ethereum Signed Message:\\n32\";\n        bytes32 prefixedHash = sha3(prefix, message);\n        address addr = ecrecover(prefixedHash, v, r, s);\n        return addr;\n    }\n}",
  "sourcePath": "/home/jack/eth_labs/code/project/truffle/contracts/StateChannel.sol",
  "compiler": {
    "name": "solc",
    "version": "0.4.24+commit.e67f0147.Emscripten.clang"
  },
  "schemaVersion": "2.0.0",
  "updatedAt": "2018-06-04T16:15:17.573Z"
}