{
  "contractName": "StateChannel",
  "abi": [
    {
      "constant": true,
      "inputs": [],
      "name": "PUNISHMENT",
      "outputs": [
        {
          "name": "",
          "type": "uint256"
        }
      ],
      "payable": false,
      "stateMutability": "view",
      "type": "function"
    },
    {
      "constant": true,
      "inputs": [],
      "name": "accepting_new_channels",
      "outputs": [
        {
          "name": "",
          "type": "bool"
        }
      ],
      "payable": false,
      "stateMutability": "view",
      "type": "function"
    },
    {
      "constant": true,
      "inputs": [],
      "name": "WAITING_PERIOD",
      "outputs": [
        {
          "name": "",
          "type": "uint256"
        }
      ],
      "payable": false,
      "stateMutability": "view",
      "type": "function"
    },
    {
      "constant": false,
      "inputs": [],
      "name": "renounceOwnership",
      "outputs": [],
      "payable": false,
      "stateMutability": "nonpayable",
      "type": "function"
    },
    {
      "constant": true,
      "inputs": [],
      "name": "owner",
      "outputs": [
        {
          "name": "",
          "type": "address"
        }
      ],
      "payable": false,
      "stateMutability": "view",
      "type": "function"
    },
    {
      "constant": false,
      "inputs": [
        {
          "name": "newOwner",
          "type": "address"
        }
      ],
      "name": "transferOwnership",
      "outputs": [],
      "payable": false,
      "stateMutability": "nonpayable",
      "type": "function"
    },
    {
      "inputs": [
        {
          "name": "_accepting_new_channels",
          "type": "bool"
        }
      ],
      "payable": true,
      "stateMutability": "payable",
      "type": "constructor"
    },
    {
      "anonymous": false,
      "inputs": [
        {
          "indexed": false,
          "name": "user",
          "type": "address"
        },
        {
          "indexed": false,
          "name": "channel_number",
          "type": "uint256"
        },
        {
          "indexed": false,
          "name": "cap",
          "type": "uint256"
        }
      ],
      "name": "CreatedChannel",
      "type": "event"
    },
    {
      "anonymous": false,
      "inputs": [
        {
          "indexed": true,
          "name": "previousOwner",
          "type": "address"
        }
      ],
      "name": "OwnershipRenounced",
      "type": "event"
    },
    {
      "anonymous": false,
      "inputs": [
        {
          "indexed": true,
          "name": "previousOwner",
          "type": "address"
        },
        {
          "indexed": true,
          "name": "newOwner",
          "type": "address"
        }
      ],
      "name": "OwnershipTransferred",
      "type": "event"
    },
    {
      "constant": false,
      "inputs": [
        {
          "name": "_accepting_new_channels",
          "type": "bool"
        }
      ],
      "name": "changeAcceptanceStatus",
      "outputs": [],
      "payable": false,
      "stateMutability": "nonpayable",
      "type": "function"
    },
    {
      "constant": false,
      "inputs": [
        {
          "name": "cap",
          "type": "uint256"
        }
      ],
      "name": "createNewChannel",
      "outputs": [
        {
          "name": "",
          "type": "uint256"
        }
      ],
      "payable": true,
      "stateMutability": "payable",
      "type": "function"
    },
    {
      "constant": false,
      "inputs": [
        {
          "name": "channel_number",
          "type": "uint256"
        },
        {
          "name": "funds_used",
          "type": "uint256"
        }
      ],
      "name": "startClosingByUser",
      "outputs": [],
      "payable": false,
      "stateMutability": "nonpayable",
      "type": "function"
    },
    {
      "constant": false,
      "inputs": [
        {
          "name": "user",
          "type": "address"
        },
        {
          "name": "channel_number",
          "type": "uint256"
        },
        {
          "name": "funds_used",
          "type": "uint256"
        },
        {
          "name": "v",
          "type": "uint8"
        },
        {
          "name": "r",
          "type": "bytes32"
        },
        {
          "name": "s",
          "type": "bytes32"
        }
      ],
      "name": "closeByOwner",
      "outputs": [],
      "payable": false,
      "stateMutability": "nonpayable",
      "type": "function"
    },
    {
      "constant": false,
      "inputs": [
        {
          "name": "user",
          "type": "address"
        },
        {
          "name": "channel_number",
          "type": "uint256"
        },
        {
          "name": "funds_used",
          "type": "uint256"
        },
        {
          "name": "v",
          "type": "uint8"
        },
        {
          "name": "r",
          "type": "bytes32"
        },
        {
          "name": "s",
          "type": "bytes32"
        }
      ],
      "name": "challengeByOwner",
      "outputs": [],
      "payable": false,
      "stateMutability": "nonpayable",
      "type": "function"
    },
    {
      "constant": false,
      "inputs": [
        {
          "name": "channel_number",
          "type": "uint256"
        }
      ],
      "name": "closeByUser",
      "outputs": [],
      "payable": false,
      "stateMutability": "nonpayable",
      "type": "function"
    },
    {
      "constant": true,
      "inputs": [
        {
          "name": "user",
          "type": "address"
        },
        {
          "name": "channel_number",
          "type": "uint256"
        }
      ],
      "name": "isChannelOpen",
      "outputs": [
        {
          "name": "",
          "type": "bool"
        }
      ],
      "payable": false,
      "stateMutability": "view",
      "type": "function"
    },
    {
      "constant": true,
      "inputs": [
        {
          "name": "funds_used",
          "type": "uint256"
        },
        {
          "name": "user",
          "type": "address"
        },
        {
          "name": "channel_number",
          "type": "uint256"
        },
        {
          "name": "v",
          "type": "uint8"
        },
        {
          "name": "r",
          "type": "bytes32"
        },
        {
          "name": "s",
          "type": "bytes32"
        }
      ],
      "name": "verifyReceipt",
      "outputs": [
        {
          "name": "",
          "type": "bool"
        }
      ],
      "payable": false,
      "stateMutability": "view",
      "type": "function"
    },
    {
      "constant": true,
      "inputs": [
        {
          "name": "funds_used",
          "type": "uint256"
        },
        {
          "name": "user",
          "type": "uint256"
        },
        {
          "name": "channel_number",
          "type": "uint256"
        }
      ],
      "name": "hash",
      "outputs": [
        {
          "name": "",
          "type": "bytes32"
        }
      ],
      "payable": false,
      "stateMutability": "pure",
      "type": "function"
    },
    {
      "constant": true,
      "inputs": [
        {
          "name": "message",
          "type": "bytes32"
        },
        {
          "name": "v",
          "type": "uint8"
        },
        {
          "name": "r",
          "type": "bytes32"
        },
        {
          "name": "s",
          "type": "bytes32"
        }
      ],
      "name": "verify",
      "outputs": [
        {
          "name": "",
          "type": "address"
        }
      ],
      "payable": false,
      "stateMutability": "pure",
      "type": "function"
    }
  ],
  "bytecode": "0x60806040526001600060146101000a81548160ff02191690831515021790555060405160208061151283398101806040528101908080519060200190929190505050336000806101000a81548173ffffffffffffffffffffffffffffffffffffffff021916908373ffffffffffffffffffffffffffffffffffffffff1602179055506100998161009f640100000000026401000000009004565b50610117565b6000809054906101000a900473ffffffffffffffffffffffffffffffffffffffff1673ffffffffffffffffffffffffffffffffffffffff163373ffffffffffffffffffffffffffffffffffffffff161415156100fa57600080fd5b80600060146101000a81548160ff02191690831515021790555050565b6113ec806101266000396000f3006080604052600436106100e6576000357c0100000000000000000000000000000000000000000000000000000000900463ffffffff1680631ef1413b146100eb5780631fdcfe351461011a5780632b41bd18146101455780634cc4f419146101aa57806360326e89146101d95780636f85c7e414610259578063715018a61461028457806375367e0b1461029b57806379e60a4e146102d25780638da5cb5b1461035257806392dc3a0b146103a9578063e05bac68146103dd578063e094dc1d1461043a578063ee386c83146104d2578063f1835db7146104ff578063f2fde38b14610599575b600080fd5b3480156100f757600080fd5b506101186004803603810190808035151590602001909291905050506105dc565b005b34801561012657600080fd5b5061012f610654565b6040518082815260200191505060405180910390f35b34801561015157600080fd5b50610190600480360381019080803573ffffffffffffffffffffffffffffffffffffffff16906020019092919080359060200190929190505050610660565b604051808215151515815260200191505060405180910390f35b3480156101b657600080fd5b506101bf6106fa565b604051808215151515815260200191505060405180910390f35b3480156101e557600080fd5b50610257600480360381019080803573ffffffffffffffffffffffffffffffffffffffff1690602001909291908035906020019092919080359060200190929190803560ff1690602001909291908035600019169060200190929190803560001916906020019092919050505061070d565b005b34801561026557600080fd5b5061026e6108c8565b6040518082815260200191505060405180910390f35b34801561029057600080fd5b506102996108cd565b005b3480156102a757600080fd5b506102d060048036038101908080359060200190929190803590602001909291905050506109cf565b005b3480156102de57600080fd5b50610350600480360381019080803573ffffffffffffffffffffffffffffffffffffffff1690602001909291908035906020019092919080359060200190929190803560ff16906020019092919080356000191690602001909291908035600019169060200190929190505050610a99565b005b34801561035e57600080fd5b50610367610c8a565b604051808273ffffffffffffffffffffffffffffffffffffffff1673ffffffffffffffffffffffffffffffffffffffff16815260200191505060405180910390f35b6103c760048036038101908080359060200190929190505050610caf565b6040518082815260200191505060405180910390f35b3480156103e957600080fd5b5061041c600480360381019080803590602001909291908035906020019092919080359060200190929190505050610e99565b60405180826000191660001916815260200191505060405180910390f35b34801561044657600080fd5b506104b860048036038101908080359060200190929190803573ffffffffffffffffffffffffffffffffffffffff16906020019092919080359060200190929190803560ff16906020019092919080356000191690602001909291908035600019169060200190929190505050610eca565b604051808215151515815260200191505060405180910390f35b3480156104de57600080fd5b506104fd60048036038101908080359060200190929190505050610f94565b005b34801561050b57600080fd5b506105576004803603810190808035600019169060200190929190803560ff16906020019092919080356000191690602001909291908035600019169060200190929190505050611126565b604051808273ffffffffffffffffffffffffffffffffffffffff1673ffffffffffffffffffffffffffffffffffffffff16815260200191505060405180910390f35b3480156105a557600080fd5b506105da600480360381019080803573ffffffffffffffffffffffffffffffffffffffff16906020019092919050505061126b565b005b6000809054906101000a900473ffffffffffffffffffffffffffffffffffffffff1673ffffffffffffffffffffffffffffffffffffffff163373ffffffffffffffffffffffffffffffffffffffff1614151561063757600080fd5b80600060146101000a81548160ff02191690831515021790555050565b670de0b6b3a764000081565b600080600260003373ffffffffffffffffffffffffffffffffffffffff1673ffffffffffffffffffffffffffffffffffffffff16815260200190815260200160002060008481526020019081526020016000209050600060028111156106c257fe5b8160000160009054906101000a900460ff1660028111156106df57fe5b14156106ee57600191506106f3565b600091505b5092915050565b600060149054906101000a900460ff1681565b600080600260008973ffffffffffffffffffffffffffffffffffffffff1673ffffffffffffffffffffffffffffffffffffffff168152602001908152602001600020600088815260200190815260200160002091506001600281111561076f57fe5b8260000160009054906101000a900460ff16600281111561078c57fe5b14151561079857600080fd5b8582600301541015156107aa57600080fd5b858260010154101515156107bd57600080fd5b6107cb868989888888610eca565b15156107d657600080fd5b60028260000160006101000a81548160ff021916908360028111156107f757fe5b02179055508582600101540390506000809054906101000a900473ffffffffffffffffffffffffffffffffffffffff1673ffffffffffffffffffffffffffffffffffffffff166108fc670de0b6b3a764000088019081150290604051600060405180830381858888f19350505050158015610876573d6000803e3d6000fd5b508773ffffffffffffffffffffffffffffffffffffffff166108fc829081150290604051600060405180830381858888f193505050501580156108bd573d6000803e3d6000fd5b505050505050505050565b600a81565b6000809054906101000a900473ffffffffffffffffffffffffffffffffffffffff1673ffffffffffffffffffffffffffffffffffffffff163373ffffffffffffffffffffffffffffffffffffffff1614151561092857600080fd5b6000809054906101000a900473ffffffffffffffffffffffffffffffffffffffff1673ffffffffffffffffffffffffffffffffffffffff167ff8df31144d9c2f0f6b59d69b8b98abd5459d07f2742c4df920b25aae33c6482060405160405180910390a260008060006101000a81548173ffffffffffffffffffffffffffffffffffffffff021916908373ffffffffffffffffffffffffffffffffffffffff160217905550565b6000600260003373ffffffffffffffffffffffffffffffffffffffff1673ffffffffffffffffffffffffffffffffffffffff1681526020019081526020016000206000848152602001908152602001600020905060006002811115610a3057fe5b8160000160009054906101000a900460ff166002811115610a4d57fe5b141515610a5957600080fd5b818160030181905550600a4301816002018190555060018160000160006101000a81548160ff02191690836002811115610a8f57fe5b0217905550505050565b6000806000809054906101000a900473ffffffffffffffffffffffffffffffffffffffff1673ffffffffffffffffffffffffffffffffffffffff163373ffffffffffffffffffffffffffffffffffffffff16141515610af757600080fd5b600260008973ffffffffffffffffffffffffffffffffffffffff1673ffffffffffffffffffffffffffffffffffffffff1681526020019081526020016000206000888152602001908152602001600020915060006002811115610b5657fe5b8260000160009054906101000a900460ff166002811115610b7357fe5b141515610b7f57600080fd5b610b8d868989888888610eca565b1515610b9857600080fd5b60028260000160006101000a81548160ff02191690836002811115610bb957fe5b02179055508582600101540390506000809054906101000a900473ffffffffffffffffffffffffffffffffffffffff1673ffffffffffffffffffffffffffffffffffffffff166108fc879081150290604051600060405180830381858888f19350505050158015610c2e573d6000803e3d6000fd5b508773ffffffffffffffffffffffffffffffffffffffff166108fc670de0b6b3a764000083019081150290604051600060405180830381858888f19350505050158015610c7f573d6000803e3d6000fd5b505050505050505050565b6000809054906101000a900473ffffffffffffffffffffffffffffffffffffffff1681565b600080670de0b6b3a7640000830134141515610cca57600080fd5b600160003373ffffffffffffffffffffffffffffffffffffffff1673ffffffffffffffffffffffffffffffffffffffff16815260200190815260200160002054905060018101600160003373ffffffffffffffffffffffffffffffffffffffff1673ffffffffffffffffffffffffffffffffffffffff1681526020019081526020016000208190555060806040519081016040528060006002811115610d6c57fe5b8152602001848152602001600081526020016000815250600260003373ffffffffffffffffffffffffffffffffffffffff1673ffffffffffffffffffffffffffffffffffffffff168152602001908152602001600020600083815260200190815260200160002060008201518160000160006101000a81548160ff02191690836002811115610df757fe5b02179055506020820151816001015560408201518160020155606082015181600301559050507ffdf1192447a4831c5027fba42fc1b98496c1f8cb396c6a16f79521112850a099338285604051808473ffffffffffffffffffffffffffffffffffffffff1673ffffffffffffffffffffffffffffffffffffffff168152602001838152602001828152602001935050505060405180910390a180915050919050565b6000838383604051808481526020018381526020018281526020019350505050604051809103902090509392505050565b600086600260008873ffffffffffffffffffffffffffffffffffffffff1673ffffffffffffffffffffffffffffffffffffffff16815260200190815260200160002060008781526020019081526020016000206001015410151515610f2e57600080fd5b8573ffffffffffffffffffffffffffffffffffffffff16610f71610f69898973ffffffffffffffffffffffffffffffffffffffff1689610e99565b868686611126565b73ffffffffffffffffffffffffffffffffffffffff161490509695505050505050565b600080600260003373ffffffffffffffffffffffffffffffffffffffff1673ffffffffffffffffffffffffffffffffffffffff1681526020019081526020016000206000848152602001908152602001600020915060016002811115610ff657fe5b8260000160009054906101000a900460ff16600281111561101357fe5b14151561101f57600080fd5b43826002015410151561103157600080fd5b60028260000160006101000a81548160ff0219169083600281111561105257fe5b0217905550816003015482600101540390506000809054906101000a900473ffffffffffffffffffffffffffffffffffffffff1673ffffffffffffffffffffffffffffffffffffffff166108fc83600301549081150290604051600060405180830381858888f193505050501580156110cf573d6000803e3d6000fd5b503373ffffffffffffffffffffffffffffffffffffffff166108fc670de0b6b3a764000083019081150290604051600060405180830381858888f19350505050158015611120573d6000803e3d6000fd5b50505050565b600060606000806040805190810160405280601c81526020017f19457468657265756d205369676e6564204d6573736167653a0a333200000000815250925082886040518083805190602001908083835b60208310151561119c5780518252602082019150602081019050602083039250611177565b6001836020036101000a03801982511681845116808217855250505050505090500182600019166000191681526020019250505060405180910390209150600182888888604051600081526020016040526040518085600019166000191681526020018460ff1660ff1681526020018360001916600019168152602001826000191660001916815260200194505050505060206040516020810390808403906000865af1158015611251573d6000803e3d6000fd5b505050602060405103519050809350505050949350505050565b6000809054906101000a900473ffffffffffffffffffffffffffffffffffffffff1673ffffffffffffffffffffffffffffffffffffffff163373ffffffffffffffffffffffffffffffffffffffff161415156112c657600080fd5b600073ffffffffffffffffffffffffffffffffffffffff168173ffffffffffffffffffffffffffffffffffffffff161415151561130257600080fd5b8073ffffffffffffffffffffffffffffffffffffffff166000809054906101000a900473ffffffffffffffffffffffffffffffffffffffff1673ffffffffffffffffffffffffffffffffffffffff167f8be0079c531659141344cd1fd0a4f28419497f9722a3daafe3b4186f6b6457e060405160405180910390a3806000806101000a81548173ffffffffffffffffffffffffffffffffffffffff021916908373ffffffffffffffffffffffffffffffffffffffff160217905550505600a165627a7a7230582058f5bd989733ea7ed175c16908a659e2127989df6da071ac1764d3d7cc80173e0029",
  "source": "pragma solidity ^0.4.23;\n\n// import 'https://github.com/OpenZeppelin/openzeppelin-solidity/contracts/ownership/Ownable.sol';\n// import 'https://github.com/OpenZeppelin/openzeppelin-solidity/contracts/math/SafeMath.sol';\n\nimport './Ownable.sol';\nimport './SafeMath.sol';\n\n\ncontract StateChannel is Ownable {\n\n\tusing SafeMath for uint256; // TODO\n\n    uint256 public constant PUNISHMENT = 1 ether;  // TODO should be ~10% of value - solidity doesnt have floats, so better to do it that way\n    uint256 public constant WAITING_PERIOD = 10; // 4 * 2880;  // after \"close\" call, we're waiting ~48h for challenge (new block appears - on average - every 15 seconds)\n    bool public accepting_new_channels = true;\n\n    enum Stage {\n        Open,\n        WaitingForChallengeByOwner,\n        Closed\n    }\n\n    struct StateS {\n        Stage stage;\n        uint256 cap;\n        uint256 closed_at;\n        uint256 funds_used;\n    }\n\n    mapping (address => uint256) available_channel; // since one user can have multiple channels, this mapping holds the minimal available number\n    mapping (address => mapping (uint256 => StateS)) state;  // the client is responsible for remembering the number - he get's it after initialization\n\n    event CreatedChannel(address user, uint256 channel_number, uint256 cap);\n\n    constructor(bool _accepting_new_channels) public payable {\n        changeAcceptanceStatus(_accepting_new_channels);\n    }\n\n    function changeAcceptanceStatus(bool _accepting_new_channels) public onlyOwner {\n        accepting_new_channels = _accepting_new_channels;\n    }\n\n    function createNewChannel(uint256 cap) public payable returns(uint256) {\n        require (msg.value == (cap + PUNISHMENT));\n        // require (accepting_new_channels);\n\n        uint256 channel_number = available_channel[msg.sender];\n        available_channel[msg.sender] = channel_number + 1;\n        state[msg.sender][channel_number] = StateS({\n            stage: Stage.Open, \n            cap: cap,\n            closed_at: 0,\n            funds_used: 0\n        });\n\n        emit CreatedChannel(msg.sender, channel_number, cap);\n        return channel_number;\n    }\n\n    function startClosingByUser (uint256 channel_number, uint256 funds_used) public {\n        StateS storage st = state[msg.sender][channel_number];\n\n        require (st.stage == Stage.Open);\n\n        st.funds_used = funds_used;\n        st.closed_at = block.number + WAITING_PERIOD;\n        st.stage = Stage.WaitingForChallengeByOwner;\n    }\n\n    function closeByOwner (\n        address user, \n        uint256 channel_number, \n        uint256 funds_used, \n        uint8 v, \n        bytes32 r, \n        bytes32 s) public onlyOwner {\n        StateS storage st = state[user][channel_number];\n\n        require (st.stage == Stage.Open);\n        require (verifyReceipt(funds_used, user, channel_number, v, r, s));\n        \n        st.stage = Stage.Closed;\n\n        uint256 funds_left = st.cap - funds_used;\n        \n        owner.transfer(funds_used);\n        user.transfer(funds_left + PUNISHMENT);  // return PUNISHMENT to user, since he didn't cheat\n    }\n    \n    function challengeByOwner (address user, \n        uint256 channel_number, \n        uint256 funds_used, \n        uint8 v, \n        bytes32 r, \n        bytes32 s) public {\n    \tStateS storage st = state[user][channel_number];\n\n    \trequire (st.stage == Stage.WaitingForChallengeByOwner);\n    \trequire (st.funds_used < funds_used);  // we can only challenge if we propose higher funds_used\n    \trequire (st.cap >= funds_used); // and we can only propose lower funds than cap\n        require (verifyReceipt(funds_used, user, channel_number, v, r, s));\n\n        st.stage = Stage.Closed;\n        \n        // It appears owner is right - user should then pay PUNISHMENT and return funds to user\n        uint256 funds_left = st.cap - funds_used;\n        \n        owner.transfer(funds_used + PUNISHMENT);\n        user.transfer(funds_left);\n    }\n\n    function closeByUser (uint256 channel_number) public {\n        StateS storage st = state[msg.sender][channel_number];\n\n        require (st.stage == Stage.WaitingForChallengeByOwner);\n        require (st.closed_at < block.number);\n        \n        st.stage = Stage.Closed;\n\n        // It appears user didn't cheat\n        uint256 funds_left = st.cap - st.funds_used;\n        \n        owner.transfer(st.funds_used);\n        msg.sender.transfer(funds_left + PUNISHMENT);\n    }\n    \n    function isChannelOpen(address user, uint256 channel_number) public view returns(bool) {\n        StateS storage st = state[msg.sender][channel_number];\n\n        if (st.stage == Stage.Open) {\n            return true;\n        }\n        else {\n            return false;\n        }\n    }\n\n    function verifyReceipt (\n        uint256 funds_used, \n        address user, \n        uint256 channel_number, \n        uint8 v, \n        bytes32 r, \n        bytes32 s) public view returns(bool) {\n\n        require (state[user][channel_number].cap >= funds_used);\n\n        // converting everything to uint256 because otherwise nothing works\n        return verify(hash(uint256(funds_used), uint256(user), uint256(channel_number)), v, r, s) == user;\n    }\n\n    function hash(uint256 funds_used, uint256 user, uint256 channel_number) public pure returns(bytes32) {\n        return sha3(funds_used, user, channel_number);\n    }\n\n    function verify(bytes32 message, uint8 v, bytes32 r, bytes32 s) public pure returns(address) {\n        bytes memory prefix = \"\\x19Ethereum Signed Message:\\n32\";\n        bytes32 prefixedHash = sha3(prefix, message);\n        address addr = ecrecover(prefixedHash, v, r, s);\n        return addr;\n    }\n}",
  "sourcePath": "/home/jack/eth_labs/code/project/truffle/contracts/StateChannel.sol",
  "compiler": {
    "name": "solc",
    "version": "0.4.24+commit.e67f0147.Emscripten.clang"
  },
  "schemaVersion": "2.0.0",
  "updatedAt": "2018-06-03T08:00:54.869Z"
}