{
  "contractName": "StateChannel",
  "abi": [
    {
      "constant": true,
      "inputs": [],
      "name": "MINVAL",
      "outputs": [
        {
          "name": "",
          "type": "uint256"
        }
      ],
      "payable": false,
      "stateMutability": "view",
      "type": "function"
    },
    {
      "constant": true,
      "inputs": [],
      "name": "PUNISHMENT",
      "outputs": [
        {
          "name": "",
          "type": "uint256"
        }
      ],
      "payable": false,
      "stateMutability": "view",
      "type": "function"
    },
    {
      "constant": true,
      "inputs": [],
      "name": "accepting_new_channels",
      "outputs": [
        {
          "name": "",
          "type": "bool"
        }
      ],
      "payable": false,
      "stateMutability": "view",
      "type": "function"
    },
    {
      "constant": true,
      "inputs": [],
      "name": "WAITING_PERIOD",
      "outputs": [
        {
          "name": "",
          "type": "uint256"
        }
      ],
      "payable": false,
      "stateMutability": "view",
      "type": "function"
    },
    {
      "constant": false,
      "inputs": [],
      "name": "renounceOwnership",
      "outputs": [],
      "payable": false,
      "stateMutability": "nonpayable",
      "type": "function"
    },
    {
      "constant": true,
      "inputs": [],
      "name": "owner",
      "outputs": [
        {
          "name": "",
          "type": "address"
        }
      ],
      "payable": false,
      "stateMutability": "view",
      "type": "function"
    },
    {
      "constant": false,
      "inputs": [
        {
          "name": "newOwner",
          "type": "address"
        }
      ],
      "name": "transferOwnership",
      "outputs": [],
      "payable": false,
      "stateMutability": "nonpayable",
      "type": "function"
    },
    {
      "inputs": [
        {
          "name": "_accepting_new_channels",
          "type": "bool"
        }
      ],
      "payable": true,
      "stateMutability": "payable",
      "type": "constructor"
    },
    {
      "anonymous": false,
      "inputs": [
        {
          "indexed": false,
          "name": "user",
          "type": "address"
        },
        {
          "indexed": false,
          "name": "channel_number",
          "type": "uint256"
        },
        {
          "indexed": false,
          "name": "cap",
          "type": "uint256"
        }
      ],
      "name": "CreatedChannel",
      "type": "event"
    },
    {
      "anonymous": false,
      "inputs": [
        {
          "indexed": true,
          "name": "previousOwner",
          "type": "address"
        }
      ],
      "name": "OwnershipRenounced",
      "type": "event"
    },
    {
      "anonymous": false,
      "inputs": [
        {
          "indexed": true,
          "name": "previousOwner",
          "type": "address"
        },
        {
          "indexed": true,
          "name": "newOwner",
          "type": "address"
        }
      ],
      "name": "OwnershipTransferred",
      "type": "event"
    },
    {
      "constant": false,
      "inputs": [
        {
          "name": "_accepting_new_channels",
          "type": "bool"
        }
      ],
      "name": "changeAcceptanceStatus",
      "outputs": [],
      "payable": false,
      "stateMutability": "nonpayable",
      "type": "function"
    },
    {
      "constant": false,
      "inputs": [
        {
          "name": "cap",
          "type": "uint256"
        }
      ],
      "name": "createNewChannel",
      "outputs": [
        {
          "name": "",
          "type": "uint256"
        }
      ],
      "payable": true,
      "stateMutability": "payable",
      "type": "function"
    },
    {
      "constant": false,
      "inputs": [
        {
          "name": "channel_number",
          "type": "uint256"
        },
        {
          "name": "funds_used",
          "type": "uint256"
        }
      ],
      "name": "startClosingByUser",
      "outputs": [],
      "payable": false,
      "stateMutability": "nonpayable",
      "type": "function"
    },
    {
      "constant": false,
      "inputs": [
        {
          "name": "user",
          "type": "address"
        },
        {
          "name": "channel_number",
          "type": "uint256"
        },
        {
          "name": "funds_used",
          "type": "uint256"
        },
        {
          "name": "v",
          "type": "uint8"
        },
        {
          "name": "r",
          "type": "bytes32"
        },
        {
          "name": "s",
          "type": "bytes32"
        }
      ],
      "name": "closeByOwner",
      "outputs": [],
      "payable": false,
      "stateMutability": "nonpayable",
      "type": "function"
    },
    {
      "constant": false,
      "inputs": [
        {
          "name": "user",
          "type": "address"
        },
        {
          "name": "channel_number",
          "type": "uint256"
        },
        {
          "name": "funds_used",
          "type": "uint256"
        },
        {
          "name": "v",
          "type": "uint8"
        },
        {
          "name": "r",
          "type": "bytes32"
        },
        {
          "name": "s",
          "type": "bytes32"
        }
      ],
      "name": "challengeByOwner",
      "outputs": [],
      "payable": false,
      "stateMutability": "nonpayable",
      "type": "function"
    },
    {
      "constant": false,
      "inputs": [
        {
          "name": "channel_number",
          "type": "uint256"
        }
      ],
      "name": "closeByUser",
      "outputs": [],
      "payable": false,
      "stateMutability": "nonpayable",
      "type": "function"
    },
    {
      "constant": true,
      "inputs": [
        {
          "name": "funds_used",
          "type": "uint256"
        },
        {
          "name": "user",
          "type": "address"
        },
        {
          "name": "channel_number",
          "type": "uint256"
        },
        {
          "name": "v",
          "type": "uint8"
        },
        {
          "name": "r",
          "type": "bytes32"
        },
        {
          "name": "s",
          "type": "bytes32"
        }
      ],
      "name": "verify_receipt",
      "outputs": [
        {
          "name": "",
          "type": "bool"
        }
      ],
      "payable": false,
      "stateMutability": "view",
      "type": "function"
    },
    {
      "constant": true,
      "inputs": [
        {
          "name": "funds_used",
          "type": "uint256"
        },
        {
          "name": "user",
          "type": "uint256"
        },
        {
          "name": "channel_number",
          "type": "uint256"
        }
      ],
      "name": "hash",
      "outputs": [
        {
          "name": "",
          "type": "bytes32"
        }
      ],
      "payable": false,
      "stateMutability": "pure",
      "type": "function"
    },
    {
      "constant": true,
      "inputs": [
        {
          "name": "message",
          "type": "bytes32"
        },
        {
          "name": "v",
          "type": "uint8"
        },
        {
          "name": "r",
          "type": "bytes32"
        },
        {
          "name": "s",
          "type": "bytes32"
        }
      ],
      "name": "verify",
      "outputs": [
        {
          "name": "",
          "type": "address"
        }
      ],
      "payable": false,
      "stateMutability": "pure",
      "type": "function"
    }
  ],
  "bytecode": "0x608060405260405160208061143983398101806040528101908080519060200190929190505050336000806101000a81548173ffffffffffffffffffffffffffffffffffffffff021916908373ffffffffffffffffffffffffffffffffffffffff16021790555061007e81610084640100000000026401000000009004565b506100fc565b6000809054906101000a900473ffffffffffffffffffffffffffffffffffffffff1673ffffffffffffffffffffffffffffffffffffffff163373ffffffffffffffffffffffffffffffffffffffff161415156100df57600080fd5b80600060146101000a81548160ff02191690831515021790555050565b61132e8061010b6000396000f3006080604052600436106100e6576000357c0100000000000000000000000000000000000000000000000000000000900463ffffffff16806301b8e17d146100eb5780631ef1413b146101165780631fdcfe35146101455780634cc4f4191461017057806360326e891461019f5780636f85c7e41461021f578063715018a61461024a57806375367e0b1461026157806379e60a4e146102985780638da5cb5b1461031857806391d3f9bd1461036f57806392dc3a0b14610407578063e05bac681461043b578063ee386c8314610498578063f1835db7146104c5578063f2fde38b1461055f575b600080fd5b3480156100f757600080fd5b506101006105a2565b6040518082815260200191505060405180910390f35b34801561012257600080fd5b506101436004803603810190808035151590602001909291905050506105ae565b005b34801561015157600080fd5b5061015a610626565b6040518082815260200191505060405180910390f35b34801561017c57600080fd5b50610185610632565b604051808215151515815260200191505060405180910390f35b3480156101ab57600080fd5b5061021d600480360381019080803573ffffffffffffffffffffffffffffffffffffffff1690602001909291908035906020019092919080359060200190929190803560ff16906020019092919080356000191690602001909291908035600019169060200190929190505050610645565b005b34801561022b57600080fd5b506102346107ed565b6040518082815260200191505060405180910390f35b34801561025657600080fd5b5061025f6107f3565b005b34801561026d57600080fd5b5061029660048036038101908080359060200190929190803590602001909291905050506108f5565b005b3480156102a457600080fd5b50610316600480360381019080803573ffffffffffffffffffffffffffffffffffffffff1690602001909291908035906020019092919080359060200190929190803560ff169060200190929190803560001916906020019092919080356000191690602001909291905050506109c0565b005b34801561032457600080fd5b5061032d610bb1565b604051808273ffffffffffffffffffffffffffffffffffffffff1673ffffffffffffffffffffffffffffffffffffffff16815260200191505060405180910390f35b34801561037b57600080fd5b506103ed60048036038101908080359060200190929190803573ffffffffffffffffffffffffffffffffffffffff16906020019092919080359060200190929190803560ff16906020019092919080356000191690602001909291908035600019169060200190929190505050610bd6565b604051808215151515815260200191505060405180910390f35b61042560048036038101908080359060200190929190505050610ca0565b6040518082815260200191505060405180910390f35b34801561044757600080fd5b5061047a600480360381019080803590602001909291908035906020019092919080359060200190929190505050610ea5565b60405180826000191660001916815260200191505060405180910390f35b3480156104a457600080fd5b506104c360048036038101908080359060200190929190505050610ed6565b005b3480156104d157600080fd5b5061051d6004803603810190808035600019169060200190929190803560ff16906020019092919080356000191690602001909291908035600019169060200190929190505050611068565b604051808273ffffffffffffffffffffffffffffffffffffffff1673ffffffffffffffffffffffffffffffffffffffff16815260200191505060405180910390f35b34801561056b57600080fd5b506105a0600480360381019080803573ffffffffffffffffffffffffffffffffffffffff1690602001909291905050506111ad565b005b670de0b6b3a764000081565b6000809054906101000a900473ffffffffffffffffffffffffffffffffffffffff1673ffffffffffffffffffffffffffffffffffffffff163373ffffffffffffffffffffffffffffffffffffffff1614151561060957600080fd5b80600060146101000a81548160ff02191690831515021790555050565b670de0b6b3a764000081565b600060149054906101000a900460ff1681565b600080600260008973ffffffffffffffffffffffffffffffffffffffff1673ffffffffffffffffffffffffffffffffffffffff16815260200190815260200160002060008881526020019081526020016000209150600160028111156106a757fe5b8260000160009054906101000a900460ff1660028111156106c457fe5b1415156106d057600080fd5b8582600301541015156106e257600080fd5b6106f0868989888888610bd6565b15156106fb57600080fd5b60028260000160006101000a81548160ff0219169083600281111561071c57fe5b02179055508582600101540390506000809054906101000a900473ffffffffffffffffffffffffffffffffffffffff1673ffffffffffffffffffffffffffffffffffffffff166108fc670de0b6b3a764000088019081150290604051600060405180830381858888f1935050505015801561079b573d6000803e3d6000fd5b503373ffffffffffffffffffffffffffffffffffffffff166108fc829081150290604051600060405180830381858888f193505050501580156107e2573d6000803e3d6000fd5b505050505050505050565b612d0081565b6000809054906101000a900473ffffffffffffffffffffffffffffffffffffffff1673ffffffffffffffffffffffffffffffffffffffff163373ffffffffffffffffffffffffffffffffffffffff1614151561084e57600080fd5b6000809054906101000a900473ffffffffffffffffffffffffffffffffffffffff1673ffffffffffffffffffffffffffffffffffffffff167ff8df31144d9c2f0f6b59d69b8b98abd5459d07f2742c4df920b25aae33c6482060405160405180910390a260008060006101000a81548173ffffffffffffffffffffffffffffffffffffffff021916908373ffffffffffffffffffffffffffffffffffffffff160217905550565b6000600260003373ffffffffffffffffffffffffffffffffffffffff1673ffffffffffffffffffffffffffffffffffffffff168152602001908152602001600020600084815260200190815260200160002090506000600281111561095657fe5b8160000160009054906101000a900460ff16600281111561097357fe5b14151561097f57600080fd5b818160030181905550612d004301816002018190555060018160000160006101000a81548160ff021916908360028111156109b657fe5b0217905550505050565b6000806000809054906101000a900473ffffffffffffffffffffffffffffffffffffffff1673ffffffffffffffffffffffffffffffffffffffff163373ffffffffffffffffffffffffffffffffffffffff16141515610a1e57600080fd5b600260008973ffffffffffffffffffffffffffffffffffffffff1673ffffffffffffffffffffffffffffffffffffffff1681526020019081526020016000206000888152602001908152602001600020915060006002811115610a7d57fe5b8260000160009054906101000a900460ff166002811115610a9a57fe5b141515610aa657600080fd5b610ab4868989888888610bd6565b1515610abf57600080fd5b60028260000160006101000a81548160ff02191690836002811115610ae057fe5b02179055508582600101540390506000809054906101000a900473ffffffffffffffffffffffffffffffffffffffff1673ffffffffffffffffffffffffffffffffffffffff166108fc879081150290604051600060405180830381858888f19350505050158015610b55573d6000803e3d6000fd5b503373ffffffffffffffffffffffffffffffffffffffff166108fc670de0b6b3a764000083019081150290604051600060405180830381858888f19350505050158015610ba6573d6000803e3d6000fd5b505050505050505050565b6000809054906101000a900473ffffffffffffffffffffffffffffffffffffffff1681565b600086600260008873ffffffffffffffffffffffffffffffffffffffff1673ffffffffffffffffffffffffffffffffffffffff16815260200190815260200160002060008781526020019081526020016000206001015410151515610c3a57600080fd5b8573ffffffffffffffffffffffffffffffffffffffff16610c7d610c75898973ffffffffffffffffffffffffffffffffffffffff1689610ea5565b868686611068565b73ffffffffffffffffffffffffffffffffffffffff161490509695505050505050565b600080670de0b6b3a7640000830134141515610cbb57600080fd5b600060149054906101000a900460ff161515610cd657600080fd5b600160003373ffffffffffffffffffffffffffffffffffffffff1673ffffffffffffffffffffffffffffffffffffffff16815260200190815260200160002054905060018101600160003373ffffffffffffffffffffffffffffffffffffffff1673ffffffffffffffffffffffffffffffffffffffff1681526020019081526020016000208190555060806040519081016040528060006002811115610d7857fe5b8152602001848152602001600081526020016000815250600260003373ffffffffffffffffffffffffffffffffffffffff1673ffffffffffffffffffffffffffffffffffffffff168152602001908152602001600020600083815260200190815260200160002060008201518160000160006101000a81548160ff02191690836002811115610e0357fe5b02179055506020820151816001015560408201518160020155606082015181600301559050507ffdf1192447a4831c5027fba42fc1b98496c1f8cb396c6a16f79521112850a099338285604051808473ffffffffffffffffffffffffffffffffffffffff1673ffffffffffffffffffffffffffffffffffffffff168152602001838152602001828152602001935050505060405180910390a180915050919050565b6000838383604051808481526020018381526020018281526020019350505050604051809103902090509392505050565b600080600260003373ffffffffffffffffffffffffffffffffffffffff1673ffffffffffffffffffffffffffffffffffffffff1681526020019081526020016000206000848152602001908152602001600020915060016002811115610f3857fe5b8260000160009054906101000a900460ff166002811115610f5557fe5b141515610f6157600080fd5b438260020154101515610f7357600080fd5b60028260000160006101000a81548160ff02191690836002811115610f9457fe5b0217905550816003015482600101540390506000809054906101000a900473ffffffffffffffffffffffffffffffffffffffff1673ffffffffffffffffffffffffffffffffffffffff166108fc83600301549081150290604051600060405180830381858888f19350505050158015611011573d6000803e3d6000fd5b503373ffffffffffffffffffffffffffffffffffffffff166108fc670de0b6b3a764000083019081150290604051600060405180830381858888f19350505050158015611062573d6000803e3d6000fd5b50505050565b600060606000806040805190810160405280601c81526020017f19457468657265756d205369676e6564204d6573736167653a0a333200000000815250925082886040518083805190602001908083835b6020831015156110de57805182526020820191506020810190506020830392506110b9565b6001836020036101000a03801982511681845116808217855250505050505090500182600019166000191681526020019250505060405180910390209150600182888888604051600081526020016040526040518085600019166000191681526020018460ff1660ff1681526020018360001916600019168152602001826000191660001916815260200194505050505060206040516020810390808403906000865af1158015611193573d6000803e3d6000fd5b505050602060405103519050809350505050949350505050565b6000809054906101000a900473ffffffffffffffffffffffffffffffffffffffff1673ffffffffffffffffffffffffffffffffffffffff163373ffffffffffffffffffffffffffffffffffffffff1614151561120857600080fd5b600073ffffffffffffffffffffffffffffffffffffffff168173ffffffffffffffffffffffffffffffffffffffff161415151561124457600080fd5b8073ffffffffffffffffffffffffffffffffffffffff166000809054906101000a900473ffffffffffffffffffffffffffffffffffffffff1673ffffffffffffffffffffffffffffffffffffffff167f8be0079c531659141344cd1fd0a4f28419497f9722a3daafe3b4186f6b6457e060405160405180910390a3806000806101000a81548173ffffffffffffffffffffffffffffffffffffffff021916908373ffffffffffffffffffffffffffffffffffffffff160217905550505600a165627a7a723058206b65a051bb27c7634819b727b1d54bf34685f41fcf249955aba8a39f7a77366d0029",
  "source": "pragma solidity ^0.4.23;\n\n// import 'https://github.com/OpenZeppelin/openzeppelin-solidity/contracts/ownership/Ownable.sol';\n// import 'https://github.com/OpenZeppelin/openzeppelin-solidity/contracts/math/SafeMath.sol';\n\nimport './Ownable.sol';\nimport './SafeMath.sol';\n\n\ncontract StateChannel is Ownable {\n\n\tusing SafeMath for uint256; // TODO\n\n    uint256 public constant PUNISHMENT = 1 ether;  // TODO should be ~10% of value - solidity doesnt have floats, so better to do it that way\n    uint256 public constant MINVAL = 1 ether;  // minimal value\n    uint256 public constant WAITING_PERIOD = 4 * 2880;  // after \"close\" call, we're waiting ~48h for challenge (new block appears - on average - every 15 seconds)\n    bool public accepting_new_channels;\n\n    enum Stage {\n        Open,\n        WaitingForChallengeByOwner,\n        Closed\n    }\n\n    struct StateS {\n        Stage stage;\n        uint256 cap;\n        uint256 closed_at;\n        uint256 funds_used;\n    }\n\n    mapping (address => uint256) available_channel; // since one user can have multiple channels, this mapping holds the minimal available number\n    mapping (address => mapping (uint256 => StateS)) state;  // the client is responsible for remembering the number - he get's it after initialization\n\n    event CreatedChannel(address user, uint256 channel_number, uint256 cap);\n\n    constructor(bool _accepting_new_channels) public payable {\n        changeAcceptanceStatus(_accepting_new_channels);\n    }\n\n    function changeAcceptanceStatus(bool _accepting_new_channels) public onlyOwner {\n        accepting_new_channels = _accepting_new_channels;\n    }\n\n    function createNewChannel(uint256 cap) public payable returns(uint256) {\n        require (msg.value == (cap + PUNISHMENT));\n        require (accepting_new_channels);\n\n        uint256 channel_number = available_channel[msg.sender];\n        available_channel[msg.sender] = channel_number + 1;\n        state[msg.sender][channel_number] = StateS({\n            stage: Stage.Open, \n            cap: cap,\n            closed_at: 0,\n            funds_used: 0\n        });\n\n        emit CreatedChannel(msg.sender, channel_number, cap);\n        return channel_number;\n    }\n\n    function startClosingByUser (uint256 channel_number, uint256 funds_used) public {\n        StateS storage st = state[msg.sender][channel_number];\n\n        require (st.stage == Stage.Open);\n\n        st.funds_used = funds_used;\n        st.closed_at = block.number + WAITING_PERIOD;\n        st.stage = Stage.WaitingForChallengeByOwner;\n    }\n\n    function closeByOwner (\n        address user, \n        uint256 channel_number, \n        uint256 funds_used, \n        uint8 v, \n        bytes32 r, \n        bytes32 s) public onlyOwner {\n        StateS storage st = state[user][channel_number];\n\n        require (st.stage == Stage.Open);\n        require (verify_receipt(funds_used, user, channel_number, v, r, s));\n        \n        st.stage = Stage.Closed;\n\n        uint256 funds_left = st.cap - funds_used;\n        \n        owner.transfer(funds_used);\n        msg.sender.transfer(funds_left + PUNISHMENT);  // return PUNISHMENT to user, since he didn't cheat\n    }\n    \n    function challengeByOwner (address user, \n        uint256 channel_number, \n        uint256 funds_used, \n        uint8 v, \n        bytes32 r, \n        bytes32 s) public {\n    \tStateS storage st = state[user][channel_number];\n\n    \trequire (st.stage == Stage.WaitingForChallengeByOwner);\n    \trequire (st.funds_used < funds_used);  // we can only challenge if we propose higher funds_used  \n        require (verify_receipt(funds_used, user, channel_number, v, r, s));\n\n        st.stage = Stage.Closed;\n        \n        // It appears owner is right - user should then pay PUNISHMENT and return funds to user\n        uint256 funds_left = st.cap - funds_used;\n        \n        owner.transfer(funds_used + PUNISHMENT);\n        msg.sender.transfer(funds_left);\n    }\n\n    function closeByUser (uint256 channel_number) public {\n        StateS storage st = state[msg.sender][channel_number];\n\n        require (st.stage == Stage.WaitingForChallengeByOwner);\n        require (st.closed_at < block.number);\n        \n        st.stage = Stage.Closed;\n\n        // It appears user didn't cheat\n        uint256 funds_left = st.cap - st.funds_used;\n        \n        owner.transfer(st.funds_used);\n        msg.sender.transfer(funds_left + PUNISHMENT);\n    }\n    \n\n    function verify_receipt (\n        uint256 funds_used, \n        address user, \n        uint256 channel_number, \n        uint8 v, \n        bytes32 r, \n        bytes32 s) public view returns(bool) {\n        \n        require (state[user][channel_number].cap >= funds_used);\n\n        // converting everything to uint256 because otherwise nothing works\n        return verify(hash(uint256(funds_used), uint256(user), uint256(channel_number)), v, r, s) == user;\n    }\n\n    function hash(uint256 funds_used, uint256 user, uint256 channel_number) public pure returns(bytes32) {\n        return sha3(funds_used, user, channel_number);\n    }\n\n    function verify(bytes32 message, uint8 v, bytes32 r, bytes32 s) public pure returns(address) {\n        bytes memory prefix = \"\\x19Ethereum Signed Message:\\n32\";\n        bytes32 prefixedHash = sha3(prefix, message);\n        address addr = ecrecover(prefixedHash, v, r, s);\n        return addr;\n\n        // return ecrecover(message, v, r, s);\n    }\n}",
  "sourcePath": "/home/jack/eth_labs/code/truffle_project/contracts/StateChannel.sol",
  "compiler": {
    "name": "solc",
    "version": "0.4.24+commit.e67f0147.Emscripten.clang"
  },
  "schemaVersion": "2.0.0",
  "updatedAt": "2018-05-31T06:09:32.117Z"
}